:100000000C942A000C943F000C943F000C943F0089
:100010000C943F000C943F000C943F000C943F0064
:100020000C943F000C943F000C943F000C943F0054
:100030000C943F000C943F000C943F000C943F0044
:100040000C943F000C943F000C943F000C943F0034
:100050000C943F0011241FBECFE5D8E0DEBFCDBF1A
:1000600010E0A0E6B0E0E8E1F1E002C005900D92FA
:10007000AA36B107D9F70E9465000C948A000C9447
:100080000000843078F4813041F028F0823039F07B
:10009000833039F008956ABB089567BB089564BB47
:1000A000089561BB0895843078F4813041F028F0E0
:1000B000823039F0833039F008956BBB089568BB06
:1000C000089565BB089562BB08950E947A00C0E060
:1000D00001C0C0E08C2F0E947F002FEF89E698E1DD
:1000E000215080409040E1F700C00000CF5FCA304F
:1000F00080F7F0CF6FEF82E00E94410008958A30D0
:1001000040F4E82FF0E0E05AFF4F608182E00E9467
:0801100053000895F894FFCF9D
:0A0118003F065B4F666D7D077F6FA9
:00000001FF
